:0400D3007F407E9C50
:0B00D700EF1FAC0670011E4C70F622FB
:10000300E4FDEDFF7E00C3940774809480501CEFE1
:1000130070067590FE1200D3AF907801EF0880014F
:1000230023D8FDF5901200D30D80D77590FFE4FD22
:10003300EDFF7E00C3940774809480501CEF70061C
:1000430075A0FE1200D3AFA07801EF08800123D87A
:10005300FDF5A01200D30D80D775A0FF1200D3E4E5
:10006300FDEDFFC3940774809480501EEF700375F9
:1000730090FE7F307E751200D7AF907801EF088035
:100083000123D8FD14F5900D80D77F307E751200C3
:10009300D7E4FDEDFFC3940774809480501EEF7086
:1000A3000375A0FE7F307E751200D7AFA07801EFF5
:1000B30008800123D8FD14F5A00D80D77F207E4E44
:1000C3001200D77590FF75A0FF7F207E4E0200D7E8
:0500EE0012000380FB7D
:030000000200E219
:0C00E200787FE4F6D8FD7581070200EE7F
:00000001FF
