:10001E00F2F3F5F5F6F7F8F9F9FAFAFBFBFCFCFC4E
:10002E00FDFDFDFDFEFEFEFEFEFEFEFF42C117B60D
:10003E00D0D1B621E18CD868E95B8FEE446BB4F475
:10004E002D4777A2B6DAFA1605020105020106025D
:10005E00020502020103020702020000020502016C
:10006E000502010602020502020203020103040553
:10007E000201050201050302030302010302070246
:10008E00020602040000020403010403010303023A
:10009E00010302020302010304FEFDFBF7EFDFBFC3
:1000AE007FFF7FBFDFEFF7FBFDFEFF0102040810AD
:1000BE0020408000804020100804020100FEFCF861
:1000CE00F0E0C08000FF7F3F1F0F07030100FF809D
:1000DE00C0E0F0F8FCFEFF0103070F1F3F7FFF0893
:1000EE00C0E0F0F8FCFEFFFF0080C0E0F0F8FCFE80
:1000FE00FF000103070F1F3F7FFF7FBFDFEFF7FBFF
:0A010E00FDFEFEFDFBF7EFDFBF7FF3
:09000E00011300011200010BFABC
:0C08930075A0FF7580FFED9000A793FF9B
:10089F00EFA2E19291A2E29292A2E39293A2E4924A
:0D08AF0094A2E59295A2E6929633929722CC
:0B08BC0075A0FF7FFF12089F1208C705
:1008C700E4FFEFC3950B5012E4FEEEC394FA748075
:0A08D700948050030E80F30F80E8B8
:0108E10022F4
:1001DC00750B50D3E50B9400748094804047E4FD7C
:1001EC00EDC394087480948050177FFF12089F759C
:1001FC00B0FFED9000B093F5A0F5801208C70D800C
:10020C00DFE4FDEDC39409748094805010120893C0
:10021C00ED9000B093F5B01208C70D80E674F6258A
:10022C000BF50B80AE750B0AE4FCECC3941E7480CA
:10023C0094805042E4FDEDC3940874809480501770
:10024C007FFF12089F75B0FFED9000B093F5A0F5FD
:10025C00801208C70D80DFE4FDEDC394097480940F
:10026C00805010120893ED9000B093F5B01208C7AF
:09027C000D80E60C80B4750BC87E
:010285002256
:10054800750BC87580FF75B0FF75A0FF7FFF120897
:100558009FE4FDEDC3940974809480500DED9000E4
:10056800D493F5801208C70D80E9750B6EE4FDED94
:10057800C3940974809480500FED9000CB93FF12C0
:10058800089F1208C70D80E7750B50E4FDEDC39472
:100598000974809480500DED9000CB93F5B012084B
:1005A800C70D80E9750B50E4FDEDC3940974809480
:1005B80080500DED9000CB93F5A01208C70D80E98F
:0105C8002210
:1004C5007580FF75B0FF75A0FF7FFF12089FE4FDE3
:1004D500EDC3940874809480500DED9000D493F58D
:1004E500801208C70D80E9E4FDEDC394087480947B
:1004F50080500FED9000CB93FF12089F1208C70D97
:1005050080E77580FF7FFF12089FE4FDEDC3940827
:1005150074809480500DED9000CB93F5B01208C710
:100525000D80E9E4FDEDC3940874809480500DEDD1
:100535009000CB93F5A01208C70D80E975A0FF7553
:02054500B0FF05
:010547002291
:10028600750BFAD3E50B9400748094805003020337
:10029600147580FF75B0FF75A0FF7FFF12089FE4FD
:1002A600FDEDC3940874809480500DED9000D493B6
:1002B600F5801208C70D80E9E4FDEDC3940874804B
:1002C6009480500FED9000CB93FF12089F1208C741
:1002D6000D80E7E4FDEDC3940874809480500DED25
:1002E6009000CB93F5B01208C70D80E9E4FDEDC38D
:1002F600940874809480500DED9000CB93F5A01275
:1003060008C70D80E974CE250BF50B020289750B23
:01031600FAEC
:0103170022C3
:1005C900750B32E4F580F5B0F5A0FF12089FE4FD44
:1005D900EDC3940874809480500DED9000DD93F57F
:1005E900801208C70D80E9E4FDEDC3940874809476
:1005F90080500FED9000E593FF12089F1208C70D78
:1006090080E7E4FDEDC3940874809480500DED906B
:1006190000E593F5B01208C70D80E9E4FDEDC39438
:100629000874809480500DED9000E593F5A01208B0
:07063900C70D80E9750B9667
:010640002297
:1008E200E4FDEDC394037480948050177580FF7506
:1008F200B0FF1208BCE4F580F5B0F5A0FF1208C104
:030902000D80DF86
:0109050022CF
:10070600E4FDEDC3940874809480501CED9000CBFA
:1007160093FFF580ED9000D493F5A012089FED931A
:10072600F5B01208C70D80DAE4FDEDC394087480B5
:100736009480501CED9000E593FFF580ED9000ED60
:1007460093F5A012089FED93F5B01208C70D80DA55
:010756002280
:10085C00E4FDEDC3940374809480502AE4F580F594
:10086C00B01208BC1208C71208C7E4F5A0FF1208A2
:10087C009F7580FF75B0FF1208C71208C71208C712
:06088C001208C70D80CC2C
:010892002243
:1006AD00E4FDEDC39408748094805020ED9000D447
:1006BD0093FFF5A0ED9000CB93F5808FB0ED9000FA
:1006CD00D493FF12089F1208C70D80D6E4FDEDC329
:1006DD009409748094805020ED9000F693FFF5A05E
:1006ED00ED9000FF93F5808FB0ED9000F693FF1223
:0806FD00089F1208C70D80D60A
:0107050022D1
:10075700E4FDEDC39409748094805017E4FF1208F8
:100767009FE4F5B0ED9000C293F5A0F5801208C79D
:100777000D80DFE4FDEDC39409748094805016ED7D
:100787009000B993FF12089FED9000C293F5B01245
:0507970008C70D80E021
:01079C00223A
:10082400E4FDEDC3940374809480502B758055755A
:10083400A0AA7FAA12089F75B0AA1208C71208C7F7
:100844007580AA75A0557F5512089F75B05512087A
:07085400C71208C70D80CB9D
:01085B00227A
:1007E100E4FDEDC3940974809480501BE4F580F519
:1007F100A0ED9000C293FF12089FED9000B993F510
:10080100B01208C70D80DBE4FDEDC3940974809438
:1008110080500FED9000B993F580F5A01208C70D37
:0208210080E76E
:0108230022B2
:100318007580FF75A0FFE4FF12089FE4F5B012088E
:10032800C71208C71208C71208C7E4FDEDC394082E
:1003380074809480500FED9000D493F580F5A0124E
:1003480008C70D80E7E4FDEDC394087480948050DD
:100358000FED9000D493F580F5A01208C70D80E743
:10036800E4FDEDC3940874809480500FED9000D4A0
:1003780093F580F5A01208C70D80E7E4FDEDC3945E
:100388000374809480501AE4F580F5A01208C7120F
:1003980008C77580FF75A0FF1208C71208C70D802F
:0103A800DC78
:0103A9002231
:1003AA007580FF75B0FF75A0FF7FFF12089FE4FDFF
:1003BA00EDC3940874809480500FED9000D493F5A7
:1003CA0080F5A01208C70D80E7E4FDEDC394087418
:1003DA008094805016ED9000CB93FF12089FED9009
:1003EA0000D493F5B01208C70D80E0750B64E4FDE4
:1003FA00EDC39408748094805016ED9000DD93FF4D
:10040A0012089FED9000E593F5B01208C70D80E041
:10041A00E4FDEDC39408748094805012ED9000E5D9
:0E042A0093F580F5A01208C7750BC80D80E48D
:0104380022A1
:100641001203AAE4FDEDC3940374809480501075E5
:1006510080FF1208BFE4F580FF1208C10D80E6E4B7
:10066100FDEDC3940374809480501A75A0FF75B09A
:10067100FF1208C71208C7E4F5A0F5B01208C712A7
:1006810008C70D80DCE4FDEDC394057480948050AF
:100691001AE4F5A0F5B0F580FF1208C175A0FF7549
:0B06A100B0FF7580FF1208BF0D80DC69
:0106AC00222B
:03000300020931BE
:06093100758700C2A83228
:05000600C288D2A8220F
:03000B00020921C6
:10092100C28CB290850F8C85108A751401D28C32DD
:03001B00020118C7
:10011800C0E0C0F0C083C082C0D075D000C00775F1
:100128008DFC758B18050AE50A70020509C394E869
:10013800E509648094834035750900750A00050E49
:10014800E50E7002050D940AE50D64809480401D4B
:10015800750D00750E0075B0FF75A0FF7590FF75E1
:1001680080FF751300751200D2A84387020511D2CB
:100178008CC3E51194FA74809480404B7511000586
:1001880008E508950C4040750800E5129000579363
:1001980075F007A4FFE512900056932F14F51390FD
:1001A800001E93F50FE51390003A93F510E51290B1
:1001B800005893F50C74032512F512C3940E74803D
:1001C80094814003751200D007D0D0D082D083D05C
:0401D800F0D0E03251
:100906005389F043891185108A850F8C758B18756C
:0B0916008DFCD2AFD2A9D2ABD28E2252
:10079D00120006120906E4F512750C011201DC12A5
:1007AD0005481204C51202861205C91208E2120785
:1007BD000612085C1206AD12085C1208E212075709
:1007CD001208241207E11208241203181208E2126B
:0407DD00064180C889
:03000000020439BE
:0C043900787FE4F6D8FD75811402048081
:1004450002079DE493A3F8E493A34003F68001F229
:1004550008DFF48029E493A3F85407240CC8C333B8
:10046500C4540F4420C8834004F456800146F6DF87
:10047500E4800B010204081020408090000EE47E09
:10048500019360BCA3FF543F30E509541FFEE4937C
:10049500A360010ECF54C025E060A840B8E493A343
:1004A500FAE493A3F8E493A3C8C582C8CAC583CA6E
:1004B500F0A3C8C582C8CAC583CADFE9DEE780BE26
:0100170000E8
:00000001FF
